:020000041000EA
:1000000000B5324B212058609868022188439860DF
:10001000D860186158612E4B002199600221596106
:100020000121F02299502B49196001219960352056
:1000300000F044F80222904214D00621196600F024
:1000400034F8196E01211966002018661A6600F04E
:100050002CF8196E196E196E052000F02FF8012189
:100060000842F9D1002199601B49196000215960AB
:100070001A491B48016001219960EB211966A021F2
:10008000196600F012F800219960164914480160C1
:100090000121996001BC002800D000471248134993
:1000A000086003C880F30888084703B5996A0420EC
:1000B0000142FBD001200142F8D103BD02B5186610
:1000C0001866FFF7F2FF186E186E02BD00000240BE
:1000D000000000180000070000035F00212200005C
:1000E000F4000018222000A00001001008ED00E03C
:1000F00000000000000000000000000074B24E7A12
:1001000000200420F7010010C3010010C5010010F9
:10011000C1010010C1010010C1010010C101001097
:10012000C1010010C1010010C1010010C701001081
:10013000C1010010C1010010C9010010CB01001065
:10014000CD010010CD010010CD010010CD01001037
:10015000CD010010CD010010CD010010CD01001027
:10016000CD010010CD010010CD010010CD01001017
:10017000CD010010CD010010CD010010CD01001007
:10018000CD010010CD010010CD010010CD010010F7
:10019000CD010010CD010010CD010010CD010010E7
:1001A000CD010010CD010010CD010010CD010010D7
:1001B000CD010010CD010010CD010010CD010010C7
:1001C00000BE00BE00BE00BE00BE00BE00F04BF888
:1001D000103800BEF2EB8871E81B0510081C0510F2
:1001E0003402001090A31AE700202149086006C8D5
:1001F00081F3088810471F48006800282FD10DA4FC
:100200000ECC002902D000F012F8F9E71A491B4A77
:10021000002000E001C19142FCD1194988471949E9
:1002200088471949884700BEFDE701C901C29A42C3
:10023000FBD37047081C0510C00000201C1D0020C7
:100240006438051000000420000004206438051004
:1002500000100420001004200000000070470B482C
:1002600003F08CF80047EFF30580C0B27047000040
:1002700008ED00E0000000D01C1D002084D6002006
:1002800021190010AD030010291A00105756000064
:1002900006005250ABB360539C5A041006005250F3
:1002A000861C0302AC5A0410060052505422A29D30
:1002B000B45A041005005250DE65F4686438051025
:1002C000F8B5C04610B5064C2378002B07D1054B76
:1002D000002B02D0044800E000BF0123237010BDB2
:1002E0001C1D002000000000904D0410044B10B5B0
:1002F000002B03D00349044800E000BF10BDC046F6
:1003000000000000201D0020904D041070B5040076
:100310000D00012805D0002C02D1074B9D4207D0CB
:1003200070BD054B9942F6D1044804F097FDF2E701
:10033000024804F0A3FDF3E7FFFF00009033002024
:10034000F0B5C64600B5002520E02801401B00019D
:10035000414603F03FF8C110C000FC23DB0003401E
:100360000B431B12F022134362002F020C4EB446C3
:100370006744BB541F23984340B201320843B8542A
:100380000134084B1B68A342DFDC0135064B1B68B8
:100390009846AB4201DD0024F3E780BCB846F0BDCF
:1003A00048340020581100205411002010B50F20AF
:1003B00000F00AFAD024240680231B02636204F0B2
:1003C00029FA1E491E4804F007FB0121102000F005
:1003D000E3F90121122000F0DFF90121132000F0E0
:1003E000DBF9112000F0F0F980239B026362A36126
:1003F0000E2000F0E9F98023DB016362636100F005
:100400008BF800F05DF800240FE0FFF799FFD02390
:100410001B068022D2015A61A02212020949084813
:1004200044F07EFCC82000F0E9FEFFF789FF00F0F1
:1004300047F80134142CE8DD0024E6E700CA9A3BB3
:1004400000C003404834002010B502490120FFF7E6
:100450005DFF10BDFFFF000070B5D0252D06802682
:1004600036026E61FA246400200000F0C7FEAE611F
:10047000200000F0C3FE6E61200000F0BFFE70BDE2
:1004800000B583B06B46D91D08700122024844F0C4
:1004900047FC03B000BDC04600C0034010B5D023E8
:1004A0001B068022D2019A61FFF7EAFF10BD10B54A
:1004B000D0231B068022D2015A61FFF7E1FF10BD55
:1004C00010B5124B1878FFF7E9FF0020FFF7EFFF98
:1004D0000220FFF7ECFF0020FFF7E9FF8120FFF784
:1004E000E6FF0B4B1878FFF7D9FF0020FFF7DFFF7F
:1004F0000120FFF7DCFF0020FFF7D9FFA120FFF765
:10050000D6FF044B1878FFF7C9FF10BD5C1100201F
:100510009C1100209811002010B5FFF79DFF8B4B18
:100520001878FFF7BBFF962000F068FE884B18781C
:10053000FFF7B4FFFA20400000F060FE854B18780A
:10054000FFF7ACFF0120FFF7B2FF2C20FFF7AFFF52
:100550002D20FFF7ACFF804B1878FFF79FFF01209D
:10056000FFF7A5FF2C20FFF7A2FF2D20FFF79FFF2D
:100570007A4B1878FFF792FF0120FFF798FF2C20A5
:10058000FFF795FF2D20FFF792FF0120FFF78FFF68
:100590002C20FFF78CFF2D20FFF789FF704B187878
:1005A000FFF77CFF0720FFF782FF6E4B1878FFF7FD
:1005B00075FFA220FFF77BFF0220FFF778FF842062
:1005C000FFF775FF684B1878FFF768FF0A20FFF701
:1005D0006EFF0020FFF76BFF644B1878FFF75EFF9C
:1005E0008A20FFF764FFEE20FFF761FF604B187869
:1005F000FFF754FF0E20FFF75AFF5E4B1878FFF706
:100600004DFF5D4B1878FFF749FFC820FFF74FFFFC
:100610005A4B1878FFF742FF0520FFF748FF584B69
:100620001878FFF73BFF0020FFF741FF0220FFF79C
:100630003EFF0020FFF73BFF8120FFF738FF514BC3
:100640001878FFF72BFF0020FFF731FF0120FFF79D
:100650002EFF0020FFF72BFFA120FFF728FF4A4BBA
:100660001878FFF71BFF0220FFF721FF1C20FFF780
:100670001EFF0720FFF71BFF1220FFF718FF372090
:10068000FFF715FF3220FFF712FF2920FFF70FFFBA
:100690002D20FFF70CFF2920FFF709FF2520FFF78A
:1006A00006FF2B20FFF703FF3920FFF700FF002094
:1006B000FFF7FDFE0120FFF7FAFE0320FFF7F7FE2C
:1006C0001020FFF7F4FE314B1878FFF7E7FE032008
:1006D000FFF7EDFE1D20FFF7EAFE0720FFF7E7FE1C
:1006E0000620FFF7E4FE2E20FFF7E1FE2C20FFF7A7
:1006F000DEFE2920FFF7DBFE2D20FFF7D8FE2E209F
:10070000FFF7D5FE2E20FFF7D2FE3720FFF7CFFEF2
:100710003F20FFF7CCFE0020FFF7C9FE0020FFF7C7
:10072000C6FE0220FFF7C3FE1020FFF7C0FE184BE5
:100730001878FFF7B3FE642000F060FD154B1878C1
:10074000FFF7ACFE642000F059FD10BDA41100209D
:10075000A0110020681100206C11002070110020F1
:100760007C1100208C110020901100209411002099
:10077000A8110020801100208411002060110020A9
:100780005C1100209C1100207811002074110020C1
:10079000881100206411002010B58300084A944697
:1007A00063441C6840226240C024144080225201ED
:1007B00013431C60C000034B9C466044416010BD65
:1007C00004C001400040014010B501238340D02205
:1007D0001206936293610521FFF7DEFF10BD000052
:1007E000EFF3108072B6034B1B68002BFBD0BFF3F6
:1007F0005F8F70472C0100D0BFF35F8F024B002248
:100800001A6080F3108870472C0100D0F8B50500FD
:100810000C001600FFF7E4FFE308EF18EA5C07237B
:1008200023401100D940C90706D4012199400A4349
:100830003A70FFF7E1FFF8BD2100300001F016F932
:10084000002307E0054A9A189200BFF35F8F00214A
:10085000116001331F2BF5D97047C04640000034AA
:10086000054A1078431CDBB21370172B02D9130012
:1008700010221A707047C046AC110020034B1B6851
:1008800002201840431E9841C0B2704700C0064085
:1008900070B504000D00062001F006FAC000290022
:1008A00002F0C4FD0300C6097F2018400130400853
:1008B000002E05D00D4B9E4214D83500060000E0F6
:1008C00001256562A6622C34802080010443002348
:1008D0002360062001F0E8F98000A901891902F0DF
:1008E000A5FD70BD0026024DEBE7C046FEFF0000EF
:1008F000FFFF0000002909D00A22064B9C466044F5
:10090000434258414000044BC2527047802252007B
:10091000F3E7C0460080FCBF78D6002070B5050024
:100920000C00062001F0C0F9002829D0164B9D428A
:1009300027D08022D203154B1A60154B1A60154B35
:100940009B6811009943FAD100212800FFF7D2FFDC
:1009500021002800FFF79CFF2C002C34E96A60225C
:100960004A406E21114080225201224311600A4BFD
:100970002B6380239B01234310221A600323AB6463
:1009800070BD80221204D6E70080034000E00040E2
:1009900000F0004000C000400103000040BF002004
:1009A0000021704710B5002922D003681B7B9942B3
:1009B0001ED8174B9C466144090183689C466144DC
:1009C0000C684968002A19D003681B7B9A4215D825
:1009D00083680F488446624412019A18106853686D
:1009E000020001208B4201D80ED00020C0B210BD01
:1009F000084B094A3B21094801F01AF8054B064A01
:100A00003B21064801F014F8A242EFD8EDE7C046BA
:100A1000FFFFFF0F904D041008500410B44D041058
:100A200010B500291ED0037B99421BD84B005B18E0
:100A3000033B0468A4466344002919D0002A1DD052
:100A4000914221D0002A25D0047BA24222D80468FA
:100A500050008018033820188170197800291FD1A0
:100A60001A7010BD104B114A4D21114800F0E0FFE3
:100A7000104B114A53310E4800F0DAFF0F4B0E4A6B
:100A800054210B4800F0D4FF0D4B0B4A5521084868
:100A900000F0CEFF044B054A4D21054800F0C8FF89
:100AA00041701A70DDE7C046084E0410C84F0410AC
:100AB000244E04107C4E0410A84F0410884E0410DD
:100AC000944E041070B506000D001400002914D0D7
:100AD000002A14D0806873689847002806D0220046
:100AE00029003000FFF79CFF280007E02A002100C2
:100AF0003000FFF795FF200000E0100070BD0800F7
:100B0000FCE70000F0B5CE4600B582B005000092CB
:100B100001930A9C0BAB1B789946002C29D00268E4
:100B2000E3B2517B8B4209D10123002B1BD1002C56
:100B300039D1200002B080BCB946F0BD002B0CD0EA
:100B4000117B8B4209D811685A00D318033BCB188C
:100B50009B78002BE9D00123E7E73D4B3D4A4D212F
:100B60003D4800F065FF3D4B3D4A51213D4800F0B6
:100B70005FFF03689C7B002CD9D00ED01A7B944277
:100B80000BD862001219033A19688C4662445278F5
:100B90009A73002ACBD1DA73C9E72D4B2D4A4D2128
:100BA0002D4800F045FFE7B2002F3AD02B681B7BA1
:100BB0009F4236D82C4BFB181B01AA68944663440D
:100BC000009A1A60019A5A60089A9A60099ADA6043
:100BD0002E68002F2BD030D0337B9F422DD87B0046
:100BE000DB19033B32689446634400229A705A70C2
:100BF0001A70717B3A003000FFF764FF7073A042F7
:100C000097D1287D009A019B00F0BCFB061E02D004
:100C10004B46002B17D00C9B002B00D189E71E7090
:100C200087E7124B124A3B210E4800F001FF114B9F
:100C3000114A7721084800F0FBFE054B054A4D217B
:100C4000054800F0F5FE2868390000F0EDFDE2E708
:100C5000084E0410C84F0410244E0410AC4E04106B
:100C6000D44F0410B44D0410FFFFFF0F904D04103B
:100C700008500410D04E0410BC4F0410F0B5DE46EE
:100C800057464E464546E0B58BB009900023089381
:100C90008200A44BD65837004CE0A34BA34A3B211B
:100CA000A34800F0C5FE002901D1002868D1012128
:100CB000404600F0AFFDA04219D12A686B68069249
:100CC0000793AB689846EB689A464346002B14D0CE
:100CD000002C18D03B681B7B9C4214D8631EFA681A
:100CE000D35C08931B0218433861002015E0914B38
:100CF000914A78218E4800F09BFE904B8E4A7C21D1
:100D00008B4800F095FE884B8D4A4021884800F0C2
:100D10008FFE00239A46984600207B68BFF35F8FC2
:100D200000221A6086F310884346002B31D1002838
:100D300000D1EFE000F0BEFA02000B00002000211D
:100D4000069007917868EFF3108672B60168002963
:100D5000FCD0BFF35F8F396888464C7B002CD8D01D
:100D60009BD0097B8C4298D8764965182D01B968CB
:100D70008C46654428686968801A9941002992DD8B
:100D80002A686B68099800F0FDFA00239A46984695
:100D9000C3E7089B1B022343994651461800C047EE
:100DA00005000E007A68EFF3108B72B61368594293
:100DB0004B41D9B2002BF9D1BFF35F8F002E23DB5B
:100DC000002E47DD3B69002B48D04B4567D100F032
:100DD00071FA02000B000100180052197341984289
:100DE00002D804D1914202D901225242D3170021E4
:100DF00004910131039102945146019141460091C1
:100E00003800FFF77FFE41E03B69002BD8D04B450F
:100E10001AD1069A079B10001900521BB341994240
:100E200002D804D1904202D901225242D3170021A4
:100E30000491013103910294514601914146009180
:100E40003800FFF75FFE21E03F4B3B4A8B213848DB
:100E500000F0EEFD002E01D1002DB3D13A68002C38
:100E600039D0537B9C4220D10121002933D1D37B3F
:100E7000002B36D1D473002C46D03B681B7B9C42A0
:100E800042D8FA68013C135D0133135500233B61DE
:100E90007A68BFF35F8F13608BF310884AE72A4BA1
:100EA000254A8E21224800F0C3FD002C0DD0137B73
:100EB0009C420AD863001B19033B106884466344B4
:100EC0009B78002BD1D00121CFE7204B204A4D2128
:100ED000204800F0ADFD204B204A8F211D4800F036
:100EE000A7FD002B0AD0117B8B4207D85900CB18E5
:100EF000033B11688C4663445C70BBE7134B144A98
:100F00004D21144800F094FD074B0D4A402108483C
:100F100000F08EFD0BB0F0BCBB46B246A946A04621
:100F2000F0BDC04650D40020904D0410085004106D
:100F3000B44D0410D44E0410EC4F0410EC4E0410C9
:100F4000804F0410FFFFFF0FF84E0410084E0410EE
:100F5000C84F0410244E0410344F0410944F041052
:100F600010B5054B1868002800D010BD034B044A8B
:100F70003521044800F05CFD38340020544F041043
:100F8000684F0410B44D041070B505000E0000F059
:100F900085F9280000F05EFA1249280000F0AAF94D
:100FA000182003F06BFA0400FFF75AFC0E4B9C4626
:100FB00060448000606022000C49300000F03CFB7F
:100FC00020601021300003F05DFAA06001213000A4
:100FD00003F058FAE0602575AD00054BEC50200099
:100FE00070BDC0467D0C001040000034A509001003
:100FF00050D4002010B5064B1B68002B00D010BD4C
:1010000010210320FFF7C0FF014B1860F7E7C0462F
:1010100038340020F0B5DE4657464E464546E0B52A
:1010200089B0804616001F00129B9A46139B994672
:1010300014AB1B789B461F236B4400221A702CE0D4
:10104000002B09D042461268127B934204D85A1EE4
:101050004146C968895C3DE0354B364A40213648F7
:1010600000F0E6FC0020002A5BD05B46002B58D045
:101070004946D04704000D0003000B434DD0002922
:101080003CDA32003B00361BAF41BB4202D804D1F0
:10109000B24202D901267642F71743465A68EFF367
:1010A000108472B61368002BFCD0BFF35F8F1F2330
:1010B0006B4404930023039302934B4601935346DE
:1010C000009332003B004046FFF71CFDC3B2002BEB
:1010D000B6D1190042465268BFF35F8F00251560F4
:1010E00084F31088002B1AD01F236B441A78002A2F
:1010F000B8D10902FF2318400843B4E700F0DAF83A
:1011000006000F0036196F41B94202D8C5D1B0426E
:10111000C3D901267642F717BFE7002001E001207E
:10112000404209B0F0BCBB46B246A946A046F0BD5D
:10113000904D0410804F0410B44D0410F0B587B0EA
:1011400006000F0006246442E517A4197D418D4274
:1011500002D803D1844201D90024002504940595C6
:1011600000F0A8F8241A8D41002D08DC05D03000CD
:10117000390000F0ABF807B0F0BD002CF7D0FFF756
:10118000EFFE0023029301930F4B0093049A059BFB
:10119000FFF740FF002806DAE9E7002300E000231C
:1011A000002BE4D120BF0499059A084B5B6A9A4250
:1011B000F5D80648806A884203D29A42EDD00123CE
:1011C000EEE70123ECE7C0469D0900100040054012
:1011D000F8B504000D0000F06DF802000B002000CF
:1011E0002900801859418B4202D804D1824202D989
:1011F00001204042C117FFF7A1FFF8BD10B5FA2248
:1012000092000023002103F043F8FFF7E1FF10BD37
:1012100070B5EFF305833F2018401038EFF3108CC2
:1012200072B6194B1B68002BFBD0BFF35F8F0123F5
:1012300019008140154A5163154A12781400C440C0
:10124000234214D0114B5C6A8300124D5B599C42BF
:1012500006D38300104C1B598A430D490A7007E0DE
:101260000A4A031D9B0099589950002300E000236F
:10127000BFF35F8F044A002111608CF31088002BAC
:1012800000D0984770BDC046280100D000400540FE
:1012900083D6002068D600200034002010B501005D
:1012A000024A0348FFF7B2FA10BDC04620500410AE
:1012B00081D60020044B5B6A034A906A1900536A86
:1012C0009942F9D17047C04600400540084B5B6A1F
:1012D00001E0074B5B6A8B42FBD301E0044B5B6A86
:1012E0008B4203D1024B9B6A8342F7D37047C046BF
:1012F0000040054070B504000D00EFF3108672B693
:101300001B4B1B68002BFBD0BFF35F8F002D1CD045
:10131000200000F0C7FD174B83420BD019002000BE
:1013200000F0C8FD0121200000F0B4FD0123A3401E
:10133000114A1360A400114BE550BFF35F8F0C4BB3
:1013400000221A6086F3108870BDA2000B4B0021AA
:10135000D1500122A2400A490B7893430B700549F2
:10136000200000F0D1FD0021200000F093FDE4E713
:10137000280100D011120010386005400034002010
:1013800083D60020F0B5DE4600B584B00400150019
:1013900001921E000293FFF78DFF03958E4202D843
:1013A00044D1854242D9EFF3108B72B6224B1B68B1
:1013B000002BFBD0BFF35F8F0125A5401F4B5D6362
:1013C000EFB21F490A783A430A70221D9200019930
:1013D000D150A4001B4A0299A1501B6A2B4212D182
:1013E000164B1B6C2B4208D00020BFF35F8F124BB3
:1013F00000221A608BF3108819E0134B134AB221B4
:10140000134800F015FBFFF755FF8E420CD802D1B0
:10141000039B834208D8094B1D625D63084A137819
:10142000BB4313700120E0E70020DEE7012004B099
:1014300080BCBB46F0BDC046280100D0004005403E
:1014400083D6002068D6002044500410B850041001
:1014500068500410EFF3108C72B60B4B1B68002B16
:10146000FBD0BFF35F8F01238340084A1362084912
:101470000A789A430A70BFF35F8F034B00221A6009
:101480008CF310887047C046280100D0004005400A
:1014900083D6002010B51F2905D8064B9C46614411
:1014A0008900016010BD044B044A0A21044800F081
:1014B000BFFAC04640000034D45004104851041014
:1014C0000051041010B50400FFF7CAF90100200014
:1014D000FFF7E0FFFF232371BFF35F8F10BD000014
:1014E00010B500291ED0037B99421BD84B005B1816
:1014F000033B0468A4466344002919D0002A1DD088
:10150000914221D0002A25D0047BA24222D804682F
:1015100050008018033820188170197800291FD1D5
:101520001A7010BD104B114A4D21114800F080FA7D
:10153000104B114A53310E4800F07AFA0F4B0E4A05
:1015400054210B4800F074FA0D4B0B4A5521084802
:1015500000F06EFA044B054A4D21054800F068FA88
:1015600041701A70DDE7C046084E0410D4520410D2
:10157000244E04107C4E0410C0520410884E0410F7
:10158000944E041070B506000D001400002914D00C
:10159000002A14D0806873689847002806D022007B
:1015A00029003000FFF79CFF280007E02A002100F7
:1015B0003000FFF795FF200000E0100070BD08002C
:1015C000FCE7000010B50023437301338373037BF2
:1015D000C3730121037B8B4215D9CBB2002B0CD0F6
:1015E000027B934209D85A00D218033A0468A446F1
:1015F0006244013353700131ECE70C4B0C4A4D212E
:101600000C4800F015FA002B09D09B4207D801685E
:101610005A00D318033BCB1800225A7010BD034B5D
:10162000034A4D21034800F003FAC046084E041057
:10163000D4520410244E0410F8B505000F00160013
:101640001021012002F01EFF0400057347600321F2
:10165000280002F017FF2060A6602000FFF7B2FF0D
:101660002000F8BD70B50400081E00D170BD00292F
:1016700034D0237B994231D84B005B18033B22685E
:10168000944663445A78002AF0D02DD0237B9A42A6
:101690002AD853009B18033B21688C4663445D782D
:1016A00000215970002825D0237B984222D843007E
:1016B0001B18033B21688C466344002159700100CC
:1016C0002000FFF75FFF060029002000FFF7CAFF98
:1016D000020031002000FFF755FFC7E7084B094A19
:1016E0004D21094800F0A4F9054B064A4D21064852
:1016F00000F09EF9024B034A4D21034800F098F98F
:10170000084E0410D4520410244E041070B5050085
:101710000C001600002928D02DD0037B99422AD82E
:101720004B005B18033B0268944663445A78002AD6
:1017300027D19A78002A2AD11978FFF793FF03005E
:10174000002E03D1EA7B002A27D1EC73002B37D17E
:10175000002C49D02B7B9C4246D82B6861000C1989
:10176000033C1C190023637070BD224B224A3321B5
:10177000224800F05DF9224B224A4D21224800F018
:1017800057F9224B1C4A35211C4800F051F9204BD7
:10179000194A3621194800F04BF9002A0AD0297B52
:1017A0008A4207D851008A18033A29688C46624455
:1017B0005470CAE7124B134A4D21134800F038F910
:1017C000002B0BD02A7B934208D843001B18033B05
:1017D0002A689446634400229A70B9E7084B094A84
:1017E0004D21094800F024F9054B064A4D210648D1
:1017F00000F01EF9E0510410AC520410E85104103E
:10180000084E0410D4520410244E04102C5204101C
:101810005452041070B504000A00457B2900FFF7FC
:1018200075FF6073280070BD70B50400002967D093
:10183000437B8B420ED0002911D0037B99420ED8F6
:101840004B005B18033B0268D0188378002B0CD147
:10185000002056E00021FFF7DDFF012051E0294B79
:10186000294A4D21294800F0E3F8002B20D0227BA3
:1018700093421DD85A00D318033B2268D21825681A
:10188000EB5C8B421AD0002B1BD0227B934218D8E2
:101890005A00D318033B2268D21853788B4216D0D3
:1018A000002BF0D11A4B1B4A63211B4800F0C0F8F3
:1018B000144B154A4D21154800F0BAF843781370BF
:1018C00007E0104B104A4D21104800F0B1F8437862
:1018D000537000238370437000222000FFF716FF2F
:1018E0000200617B814205D02000FFF74BFE607350
:1018F000012006E0094B074A6921074800F098F8E3
:10190000002070BD084E0410D4520410244E041060
:1019100078520410A0520410E851041080520410B0
:1019200070B5234B234A1A60234B244A1A60244B78
:101930009A68224B9343FAD1224C01E008CC984795
:10194000214B9C42FAD300F01DF91B4B1F4A1A6031
:101950001B4B9B68DB43DB01FAD11D4B40229A678E
:101960005A671A67DA661B4C03E02000FFF7AAFDEE
:101970000834194B9C42F8D3184CA168184DC0226A
:10198000280002F095FDA560EFF30383FF221A42C1
:1019900000D000BEFEF754FF00F020FCFFF72AFB4A
:1019A000104C01E008CC98470F4B9C42FAD370BD15
:1019B00000E00040BFCDFFFF00F00040FE7F3C0094
:1019C00000C00040E81C0020F81C0020FFFFFF01C1
:1019D00000F00140E01C0020E81C002000ED00E0C9
:1019E00000000020F81C00201C1D002000BEFDE7A8
:1019F00003000A4A1268002A08D0084A1068C3186F
:101A0000074A934206D2054A13607047034A0549C4
:101A10001160F2E701204042F7E7C04648D40020B9
:101A20000000042084D6002010B5FFF7DFFF00007F
:101A300010B582B00C001900002A0CD0084B002A07
:101A40000BD00192009323000200064802F0D6FE5C
:101A50000120FFF7CBFF044BF1E7034AF1E7C04653
:101A6000E0520410F05204103C8804100FB400B58A
:101A700083B0084802F092FE049B002B07D005A912
:101A80000191180002F098FE034802F087FE012041
:101A9000FFF7ACFF205304103C940410F8B5D64671
:101AA000474680B506000D001700089A934243D3BD
:101AB000190E1802089A002301F0FEFC80467400FB
:101AC000A419A4002A4B9C4664446368834200D254
:101AD0006060331FDBB29A46012B33D9C0239B01D0
:101AE0002343802212011A60B300224A9958002928
:101AF00005D0506901F09AFC01300138FDD17F0119
:101B000022685740E022174080235B0123431F6077
:101B10005246012A21D980239B01234380221201AE
:101B20001A6043466360B600124B089AF2500120D7
:101B3000C0BCBA46B046F8BD0F4B104A2E21104823
:101B4000FFF776FF012DC9D1C0239B012343032258
:101B50001A60A368DB07FCD5D1E72168694003223E
:101B60000A401A60A2680123AB401342FAD0D2E7C0
:101B700000800040103400203053041094530410AF
:101B80004453041030B583B00C2000F093F8FEF7F6
:101B900075FE00280DD0002304E09900334A344834
:101BA00088500133092BF8D9304B324A5A6203B0BE
:101BB00030BD314B00229A6700F084F82F4B012290
:101BC0001A602D4B5B6C012BFBD12D4B03221A604D
:101BD000294B9B6B012BFBD1C0239B01294A13602E
:101BE000294A1360294B9A68C0239B019343F9D17A
:101BF000022400940633264A0121264800F076F894
:101C000000940523244A0121244800F06FF8244B56
:101C10000093002202210420FFF740FF214D009590
:101C20002B00002201210520FFF738FF104C009403
:101C30002300002200210720FFF730FF009423003B
:101C4000002200210820FFF729FF0A4B0093230000
:101C5000002200210920FFF721FF00952B00002220
:101C600000210620FFF71AFFA1E7C046103400202C
:101C7000006CDC021BB70000008000403CB000405C
:101C800030B0004000E0004000F0004000C00040E4
:101C9000002F68590080024000389C1C00C00240A0
:101CA000001BB700405973078000014BC0587047B4
:101CB0001034002080239B000343014AD362704705
:101CC00000800540064BAA2212011A602F22DA601A
:101CD000044B054A1A60024B5B68002BFBDA704725
:101CE000004002400060024000B0FA00F8B5CE4665
:101CF000474680B50400894690461D0008AB1F7812
:101D000001235B424360002383600C2001F08EFBC3
:101D100006004B46236043011B1A9901C91AC900EA
:101D200009188901404601F081FB0200103A98230E
:101D30005B009A4220D86B1E062B23D87B1EDBB299
:101D4000062B1FD8AF4223D843461A09B24225D3E7
:101D5000A060221DC0239B01134321221A60226828
:101D6000002AFCDA2D043F033D43E56008221A6097
:101D7000C0BCB946B046F8BD0B4B0C4A1A210C4802
:101D8000FFF756FE0B4B094A1D210948FFF750FE8D
:101D9000094B064A23210648FFF74AFE074B034A30
:101DA00027210348FFF744FEA45304108C54041069
:101DB000C05304100C5404105854041070540410F0
:101DC000074B9B68103080001950BFF35F8FBFF343
:101DD0005F8F044B0021196082F310887047C04662
:101DE00000ED00E0240100D010B5091A04394808BC
:101DF000090B05D14005400D044B184380B210BDBE
:101E0000034B044A8D210448FFF712FE00E0FFFF58
:101E100098540410B0560410A854041010B5091AB0
:101E200004394C08090B08D14905490D064A1143EC
:101E30000180064B2343438010BD054B054A952185
:101E40000548FFF7F5FDC04600F0FFFF00F8FFFF73
:101E50009854041084560410A8540410012383409D
:101E6000034A10681840431E9841C0B27047C046EC
:101E700000E100E0002904D0034B1860034B186018
:101E80007047034B1860FBE780E200E000E100E0F0
:101E900080E100E010B5012383401800FFF7EAFF5E
:101EA00010BD0000024B9B6810308000C058704786
:101EB00000ED00E070B504000D00EFF3108672B67F
:101EC0000C4B1B68002BFBD0BFF35F8F2000FFF78C
:101ED000E9FF094B984201D0A84205D13200290000
:101EE0002000FFF76DFF70BD044B054A71210548C6
:101EF000FFF79EFD240100D0CD010010F454041022
:101F0000CC560410A8540410F0B5CE46474680B510
:101F100083B006000D00EFF3108872B65A4B1B68B1
:101F2000002BFBD0BFF35F8F584B9A6834001034FE
:101F3000A300D758564B9F4207D0AF4200D1A0E034
:101F40000197544BFB1A2F2B09D942463900300018
:101F5000FFF736FF03B0C0BCB946B046F0BD300055
:101F6000FFF77CFF814600213000FFF793FFBFF3AE
:101F70005F8FFEF778F9002801D084421ED101233B
:101F8000019C9C434349611A8A1093009B181901D4
:101F90005B1819025B1819045918490089180022A6
:101FA000A368AB4212D00622A256002A0DDB5300D2
:101FB0009B189B002200374CE418F1E78E21364B2A
:101FC000364A49003648FFF733FD2200AB4251D173
:101FD00006256557002D39DB6B005B199A002D4BE8
:101FE0009B189A68A260DA79E27106229A56A27169
:101FF0009B795BB2002B10DABD200002A0806B0041
:102000005B199B00234AD318264A117899711570E1
:1020100049463000FFF73EFF97E7201D6B005B1934
:102020009B001C4A9B181A1D9B88D90A1C2907D1A2
:102030005B055B15023359005118FFF7D5FEDDE74C
:10204000194B1A4A9B211648FFF7F2FC00280CD1C5
:10205000002A08D0FF239371154B9380114B1A78F7
:10206000A2711970D4E70A4FF8E7201D1149FFF754
:10207000D5FECDE75221104B084AFF310848FFF743
:10208000D7FC034F61E7C046240100D000ED00E01B
:10209000CD010010B0110020085604109C56041009
:1020A000A854041082D60020F0550410BC56041029
:1020B00000BDFFFFEA1100202C56041010B50323C9
:1020C00004009C43064A9446644422681840C000B9
:1020D000FC3383409A43130081400B43236010BDBF
:1020E00000E400E0F8B5040001250543304BEB1A8D
:1020F0002F2B2DD8FEF7B7F8002830D0EFF3108142
:1021000072B62C4B1B68002BFBD0BFF35F8F284BA4
:10211000E31A9E10B20092191301D2181302D218BA
:102120001304D3185B009B19234A9268800012584D
:10213000AA421BD00020032832D842001218920075
:102140001B4DAA18927952B29A421FD00130F2E781
:10215000B7211A4B1A4A49001A48FFF769FC722145
:10216000194B174AFF311748FFF762FC124A926871
:10217000164D1550164A1078A0711370BFF35F8F7B
:102180000C4B00221A6081F31088F8BD2E0042002B
:102190001518AD007519FF27AF710E48A880E9E743
:1021A000C1210D4B064A49000648FFF741FCC046D5
:1021B000B0110020240100D000ED00E034560410DE
:1021C00068560410A85404105C560410CD01001089
:1021D00082D6002000BDFFFF7852041010B5002405
:1021E00004E080212000FFF769FF01341F2CF8D99B
:1021F00010BD9A4200D288547047704710B500282D
:1022000002D00B684968984710BD0100002007E024
:1022100083001B185B00501C08601078C018303811
:102220000A681378303BDBB2092BF1D97047F0B55F
:10223000DE4657464E464546E0B583B093461F00FE
:102240000C9B9A460D9C0E9B99460F9B9B0703D0B7
:10225000B8460F00060022E00192A34688464E468B
:10226000B9460700B44207D2551C4B4641462020D0
:10227000B84701342A00F5E73D004F465C46019B14
:102280009B46B1464646B84637002E0007E0013C63
:10229000551C5346185D43463900B0472A00002CB0
:1022A000F5D135003E0047460F9B9B0707D4100031
:1022B00003B0F0BCBB46B246A946A046F0BDB0464E
:1022C0004E46B9462F005D46531BB342EFD2541C15
:1022D0004B4641462020B8472200F5E7F0B5CE46F0
:1022E000474680B585B0944698460C9D0D9C0EAB34
:1022F0001B789946109A119B129EB7071CD4002B8D
:102300000CD0F7070AD54F46002F02D10C373742C1
:1023100004D0013B02E030272F550134944201D212
:102320001F2CF8D9F70707D59C4205D21F2C03D8DC
:1023300030272F550134F5E7F70615D5770505D475
:10234000002C03D0944224D09C4222D00F9A102A11
:102350002BD00F9A102A30D00F9A022A35D01F2C7A
:1023600002D830222A5501341F2C05D84A46002AAB
:1023700031D02D222A550134039602930194009501
:1023800043466246FFF753FF05B0C0BCB946B046AE
:10239000F0BD621E012C06D00F9F102F01D014003B
:1023A000D4E7023CD2E71400D0E7B206D1D41F2C08
:1023B000CFD878222A550134D1E7B206CCD51F2CCC
:1023C000CAD858222A550134C9E71F2CC7D8603211
:1023D0002A550134C3E7720703D52B222A5501344D
:1023E000CAE73207C8D520222A550134C4E7F0B520
:1023F000DE4657464E464546E0B593B081468A468E
:10240000089209931CAB10CB1B789B461E9D219B09
:102410009846002C03D1102342469A4390468023CD
:10242000DB0046461E4042461A4212D0002C22D003
:1024300000260EE03033D9B2771C0AAB995529003B
:10244000200000F0F3FFAC4216D31F2F14D83E003B
:1024500004002900200000F0E9FFCBB2092BE9D9E4
:102460004246920605D54121C918C9B20A39C9B2F6
:10247000E2E76121F8E7270043460693209B059396
:102480001F9B049303955B46029301970AAB00934D
:10249000099B089A51464846FFF720FF13B0F0BC4D
:1024A000BB46B246A946A046F0BDF0B5DE4657464B
:1024B0004E464546E0B595B0089009910A920B93B7
:1024C0001E9E1F9C20AB1B789B46229B9946239DFA
:1024D000269B9A463300234303D1103352469A4336
:1024E00092468023DB0057461F4052461A4219D0BD
:1024F000330023432DD0002714E03033DAB27B1CA5
:1025000098460CABDA554A462B003000210000F00B
:10251000D3FFA5421FD819D043461F2B1BD84746CF
:1025200006000C004A462B003000210000F0C4FFDA
:10253000D3B2092BE1D95246920605D54122D218D1
:10254000D2B20A3AD2B2DAE76122F8E7B145E3D96A
:1025500001E00023984653460693259B0593249B50
:1025600004934B4603935B460293434601930CABA3
:1025700000930B9B0A9A09990898FFF7AFFE15B0D4
:10258000F0BCBB46B246A946A046F0BDF0B5DE465B
:1025900057464E464546E0B591B0824689460E9272
:1025A00098461A9C07941B9D089522002B0020003A
:1025B000290001F000FA002800D06FE10122524208
:1025C000D94B2000290001F0F1F9002800D065E185
:1025D00001225242D54B2000290001F0D1F90028F8
:1025E00000D05BE100220023079C2000089D290009
:1025F00001F0C6F9002800D067E1079A089B09920C
:1026000006938023DB001E9A1A400F921E9A1A42EC
:1026100001D106231C93099B069A100D4005400D1D
:10262000C3498C4660441203120B1E00C14B134376
:102630001F0001F0D3F9C04AC04B01F057F9C04A5E
:10264000C04B01F041F904000D000022BE4B3000E8
:10265000390001F030F9BD4ABD4B01F047F90200E5
:102660000B002000290001F02FF901F0CFF983467B
:1026700001F0B4F904000D00B64AB74B01F036F989
:102680000022B64B01F020F901F0C0F90600B44A6F
:10269000B44B2000290001F029F904000D000A962E
:1026A000300001F09BF9B04AB04B01F01FF9020075
:1026B0000B002000290001F0FEF804000D000200CC
:1026C0000B0001F013F906000F000A99A84B9C4675
:1026D0006144002200230A920B9309050B9100210B
:1026E0000A9122002B002000290001F0EDF80C9047
:1026F0000D9122002B0000208021C90501F0DBF89C
:1027000004000D0000229B4B3000390001F0E5F879
:102710000022994B01F0D8F802000B00300039007C
:1027200001F0DBF80022954B01F0CEF802000B001F
:102730003000390001F0D1F802000B002000290020
:1027400001F0C2F802000B000C980D9901F0C5F8D9
:102750000022784B01F0B8F80A9A0B9B01F0C6F8FA
:1027600004000D000A940B95099A069B01F01EF9CE
:1027700000280BD001235B429C46E34400227E4BA1
:102780002000290001F0A9F80A900B915B46633301
:10279000C62B00D9A0E004241E9B1B0523D5784A34
:1027A000784B099E3000069D290001F0F7F80028BB
:1027B00000D196E00022744B3000290001F0E0F8CF
:1027C000002800D18DE01C9B5B4500DC86E05A466A
:1027D000981A431E1C938023DB001E9A1A431E92F4
:1027E000002400239B461D9B9C4200D385E01D1BBB
:1027F00002231E9E1E401E9A134202D0002C00D0BF
:1028000000255B46002B07D00A9A0B9B0998069976
:1028100001F063F8099006910022002307980899B7
:1028200001F0AEF800286AD1584B1E9A1340049369
:1028300003951C9B0293099A069B009201934346C1
:102840000E9A4946504600F0A3F8002C36D01E9B45
:102850009B065BD54527451C434602004946380088
:10286000D0475B46DA179B18534005220592013C7E
:102870000494002203920A3202925A46D00F019029
:10288000009343462A0049465046FFF7B0FD002E0C
:1028900014D0020057460E9E1D9D3FE01E9B0493E0
:1028A0001D9B03931C9B0293079A089B0092019324
:1028B00043460E9A4946504600F06AF811B0F0BC03
:1028C000BB46B246A946A046F0BD099480231B062C
:1028D0009C466544069594E605245DE700231C9319
:1028E00079E71C9B002B00D17DE70F9B002B00D1CB
:1028F00079E71C9B013B1C9375E7002578E7069957
:10290000802000068446614406918DE76527A2E792
:10291000541C434649462020B8472200931BAB4233
:10292000F6D31000CAE7C046FFFFEF7FFFFFEFFFBF
:1029300001FCFFFF0000F03FFB799F501344D33FA1
:10294000B3C8608B288AC63F0000F83F61436F63BD
:10295000A787D23F71A379094F930A400000E03F57
:102960001655B5BBB16B0240EF39FAFE422EE63F79
:10297000FF03000000002C4000002440000018402D
:102980002D431CEBE2361A3F80842E41FFF7FFFFF8
:10299000F0B5DE4657464E464546E0B595B0069042
:1029A000079193469946209F1E9A1F9B100019007D
:1029B00001F001F8002831D101225242BF4B1E988C
:1029C0001F9900F0DDFF002837D101225242BC4B95
:1029D0001E981F9900F0EAFF00283DD10022B94B54
:1029E0001E981F9900F0E2FF002850D10022B64B3C
:1029F0001E981F9900F0C4FF002848D10022002330
:102A00001E981F9900F0BCFF002850D10023984663
:102A1000229B5B0500D4B6E0002458E0229B039380
:102A2000219B029303230193A84B00934B465A46E4
:102A300007990698FFF7FBFB0EE1229B0393219B6E
:102A4000029304230193A24B00934B465A460799E5
:102A50000698FFF7ECFBFFE00423229A1A40229924
:102A60000B4210D09B4B002A0FD0042222990391D5
:102A700021990291019200934B465A460799069874
:102A8000FFF7D5FBE8E0944BEDE70322EEE7229B4E
:102A90000493219B039302971E9B1F9C0093019418
:102AA0004B465A4607990698FFF770FDD4E01E9AE8
:102AB0001F9B0020002100F0FEFE1E901F910123AD
:102AC0009846A5E70CAB30221A55013F01341F2C64
:102AD00001D8092FF6D81E981F9900F097FF05001E
:102AE00000F07CFF02000B001E981F9900F0E3FE2F
:102AF000FA007A4B9B181A685B680A920B9300F0F5
:102B0000F5FE0890099100F0A5FF060000F062FFB5
:102B100002000B000898099900F0CDFE0890099179
:102B200000226F4B00F042FF00282ED0013630000B
:102B300000F050FF02000B000A980B9900F026FFEE
:102B4000002801D001350026002F2CD1280000F0EC
:102B500045FF02000B001E981F9900F0ACFE060016
:102B60000F0000225E4B00F00BFF002846D1002230
:102B70005B4B3000390000F019FF00283ED1EB0715
:102B80003CD501353AE0062746E70022544B089829
:102B9000099900F0F5FE0028D6D1002E01D0F307E8
:102BA000D2D50136D0E7AA461F2C11D8013F0A2101
:102BB000300000F03BFC651C30310CAB19550A218C
:102BC000300000F033FC092E0ED906002C00EBE794
:102BD00055461F2C0CD87B1E002F09D00CAA302183
:102BE00011551F000134F4E72B0055461C00F0E797
:102BF0001F2C03D80CAB2E221A5501341F2C10D8D1
:102C00000A21280000F0E6FB661C30310CAB195598
:102C10000A21280000F0DEFB051E01D03400EDE79C
:102C200034000323229A1340012B1CD01F2C06D8FA
:102C30004346002B32D00CAB2D221A550134229B77
:102C40000393219B029301940CAB00934B465A468D
:102C500007990698FFF7EBFA15B0F0BCBB46B246F1
:102C6000A946A046F0BD219B002B13D04346002B64
:102C700002D10C3313420FD0219B013B2193190049
:102C800003E00CAB30221A5501348C42CED21F2CFB
:102C9000F7D9CBE72199F8E72199F6E7229B5B0763
:102CA00004D50CAB2B221A550134C8E7229B1B0715
:102CB000C5D50CAB20221A550134C0E7FFFFEFFF4A
:102CC000FFFFEF7F65CDCD4165CDCDC1F45604103A
:102CD000F8560410EC560410E8560410E05804109E
:102CE0000000E03FF0B5DE4657464E464546E0B5AB
:102CF00093B082468B4690461193002900D1EBE2B7
:102D000000275546119B1878002800D1E7E22528B6
:102D100009D07C1C43463A005946A847119B013311
:102D200011932700EEE7013311930024119A1178D3
:102D30000B00203BD8B2102803D88300D048C358DA
:102D40009F460B00303BDBB2092B2CD92A292FD010
:102D500000230A93119B1A782E2A39D000239A4611
:102D6000119A1378683BD9B2122976D88B00C549DD
:102D7000CB589F4601231C4301321192D6E7022310
:102D80001C4301321192D1E704231C4301321192FA
:102D9000CCE708231C4301321192C7E710231C43E0
:102DA00001321192C2E711A8FFF72FFA0A90D1E77A
:102DB0001C9B1A1D1C921868002804DB0A90119BAA
:102DC00001331193C6E702231C4343420A93F6E7FB
:102DD0008022D20014435A1C11925A781300303BBF
:102DE000DBB2092B04D92A2A07D000239A46B7E779
:102DF00011A8FFF70AFA8246B2E71C9B1A1D1C9223
:102E00001868002804DB8246119B01331193A7E761
:102E10000020F8E780235B002343511C1191527876
:102E20006C2A01D01C0018E0C0239B001C43013118
:102E3000119112E080232343511C11915278682A8A
:102E400001D01C0009E0C0231C430131119104E0B2
:102E500080235B001C4301321192119B1878030000
:102E6000253BDAB2532A00D92CE29300864AD35884
:102E70009F4680239B001C4301321192EDE7802383
:102E80005B001C4301321192E7E7782809D05828EB
:102E900038D06F2838D0622838D010239C430A26B7
:102EA00000E01026582833D0692803D0642801D0C8
:102EB0000C229443630501D50122944369282AD04A
:102EC000642828D0A30500D59FE0E30500D5B8E02D
:102ED000630600D4CAE01C9A111D1C911168FF22E0
:102EE0000A4005940A9B04935346039302960023D9
:102EF0000193009243463A0059462800FFF777FABB
:102F0000070027E01026CDE70826CBE70226C9E711
:102F100020221443C8E7A30520D4E30550D4630658
:102F200066D51C9A111D1C911168FF220A40D31707
:102F3000D118594005940A9B049353460393029673
:102F4000D20F0192009143463A0059462800FFF7FC
:102F50004EFA0700119B01331193D3E61C9BDA1D37
:102F600007218A43110008311C91116853689C465F
:102F7000DB170C930D930C9A0D9B100048400E909C
:102F8000624653400F930E980F990C9A0D9B801A2E
:102F900099410E900F9108940A9B0793534606930C
:102FA0000496002305936346DA0F02920090019184
:102FB00043463A0059462800FFF777FA0700C9E769
:102FC0001C9A111D1C911268D317D11859400594F1
:102FD0000A9B0493534603930296D20F01920091E9
:102FE00043463A0059462800FFF701FA0700B1E7C7
:102FF000230605D51C9A111D1C910023D25E96E76D
:103000001C9A111D1C91126891E71C9BDA1D072167
:103010008A43110008311C9108940A9B0793534678
:103020000693049600230593029313685468009353
:10303000019443463A0059462800FFF736FA070044
:1030400088E71C9A111D1C9105940A9B0493534612
:1030500003930296002301931368009343463A00BA
:1030600059462800FFF7C3F9070073E723060DD57B
:103070001C9A111D1C9112681204120C31E7C046F3
:103080000057041044570410905704101C9A111D47
:103090001C91126825E746281AD01C9B073307228B
:1030A00093431A0008321C9204940A9A03925246DF
:1030B00002925C681B680093019443463A005946AB
:1030C0002800FFF765FC0700119B0133119319E6F7
:1030D00020231C43E1E7672801D0472802D1802341
:1030E0001B011C43452801D0472801D120231C4344
:1030F0001C9B0733072293431A0008321C92049446
:103100000A9A0392524602925C681B6800930194EB
:1031100043463A0059462800FFF738FA0700119B4A
:1031200001331193EEE502231A0022409246234216
:103130001FD001241C9B1A1D1C927A1C91461878E2
:1031400043463A005946A8475346002B16D1119BD7
:10315000013311934F46D5E5561C4346594620206E
:10316000B847230032005C1C9D42F5D83D00170093
:10317000E0E701233A002F000A9DF4E74A46A946FA
:103180000A9D06E0571C434659462020C847340094
:103190003A00661CA542F5D84D469146D7E71C9BE0
:1031A0001A1D1C921B6899465346002B00D1013B07
:1031B0004E4601E0013613003278002A02D05A1E32
:1031C000002BF7D14B46F21A10928023DB00260029
:1031D0001E401C4203D0524501D95346109302238E
:1031E0001A0022400B92234205D03A0037004C4689
:1031F000A946554620E03A00109B5F46B3462E0094
:1032000006E0551C434639002020B04723002A0021
:103210005C1C0A999942F4D835005E46BB4610946E
:1032200037004C46A946554606E01D000134561CA1
:1032300043465946C84732002078002804D0002F62
:10324000F4D06B1E002DF0D117004D460B9B002BC8
:1032500003D1119B0133119354E50A9F109B06E0A3
:10326000561C434659462020A847230032005C1CC8
:103270009F42F5D81700ECE721231C431C9B1A1D25
:103280001C921B68009305940823049353460393F0
:10329000102302930023019343463A005946280025
:1032A000FFF7A5F80700119B013311932AE57C1C59
:1032B00043463A0059462520A847119B01331193F4
:1032C00027001FE57C1C43463A005946A847119B3E
:1032D00001331193270015E50A4B9A4610E5AA46DB
:1032E000474502D343465A1E00E03A00434659463A
:1032F0000020D047380013B0F0BCBB46B246A94608
:10330000A046F0BDFB2100100EB410B585B0010041
:1033100007AC08CC03940122009452420348FFF703
:10332000E1FC05B010BC08BC03B01847F321001045
:1033300000B583B0009313000A0001000248FFF7B4
:10334000D1FC03B000BDC046F321001000B585B02C
:10335000029003910121009313004A4202A90248FE
:10336000FFF7C0FC05B000BDFD210010014804219D
:10337000014B1847001200209D33001010B50100CA
:1033800018231B8814221088984710BD10B501001F
:1033900018231B8816221088984710BDF0B5C64622
:1033A00000B507000E0000250123984600E0013516
:1033B000B5420AD2AC003C192068FFF7DFFF20605D
:1033C0000028F4D100239846F1E7404680BCB84677
:1033D000F0BD0000144A936F9B0815D29066D16629
:1033E000002905D0FFE7FFE7FFE7516F106F704737
:1033F00004B580210906C2175140002800D0C843F7
:1034000041F06EFC002104BD936F5B08FDD3F0B565
:10341000946ED56E576F166FFFF7E0FF9466D56612
:1034200057671667F0BD0000000000D0134A936F85
:103430009B0813D210665166002905D0FFE7FFE70D
:10344000FFE7516F106F704704B5002801D00020CE
:10345000C04341F045FC002104BDC046936F5B08AA
:10346000FDD3F0B5946ED56E576F166FFFF7E2FF80
:103470009466D56657671667F0BD0000000000D05F
:1034800094464E4A926F9208624601D230E0C0469E
:10349000F0B54A4EB56F6D08FCD3346E756E776F1C
:1034A000366F00F025F89446444A1466556657670F
:1034B00016676246F0BDC0469446404A926F920835
:1034C000624601D258E0C046F0B53C4EB56F6D087B
:1034D000FCD3346E756E776F366F00F04DF89446FE
:1034E000364A14665566576716676246F0BDC04691
:1034F000002B24DB11D000293EDA00B5C94340423D
:1035000000D1013100F038F8C943404200D1013107
:10351000DB43524200D1013300BD002AEBD1002829
:1035200001D1002905D00020C90FC90701D1C0432E
:10353000410800B541F0ACFB0022002300BD00B5FE
:1035400000290ADBDB43524200D1013300F014F8BA
:10355000C943404200D1013100BDC943404200D1BE
:103560000131DB43524200D1013300F005F8DB4367
:10357000524200D1013300BD002923D1002B18D1C4
:10358000002A0CD0BC460D4F38667A660021002315
:10359000FFE7FFE7FFE77A6F386F6746704700285D
:1035A00001D00748010000B541F072FB0022002362
:1035B00000BD02000B00002000217047000000D079
:1035C000FFFFFFFF002B00D0BDE0130C26D1002A27
:1035D000E7D080B4104F39667A66FFE7FFE730B472
:1035E000040C7B6F396F1B0423433B66FFE7FFE747
:1035F000FFE7C04684B27B6F3D6F1B0423433B66ED
:10360000FFE7FFE7C04600232C042D0C7A6F386FCC
:1036100000196941B0BC7047000000D0F0B5944675
:103620000025140E01D112020835140F01D1120128
:103630000435940F01D192000235D40F01D152000C
:103640000135D40B0134254F7C66254C3C660E0CAD
:1036500093B2FFE7FFE7FFE73C6F6643360C770363
:10366000BE467343DF0B5B04C01AB941130C7343AE
:10367000DB18C91ACE086643360CB64493B27343BE
:103680001F0F1B01C01AB941130C73431F0B1B05FD
:10369000C01AB941860D8F023E436643360C092D90
:1036A00024DB520A7243801A7703460A6643360CBB
:1036B00016235B1BDE40DF40BF1964466643821B56
:1036C0007046043506330100D940A840C01900D324
:1036D0000131A24206D20023F0BD0000000000D05C
:1036E000FFFFFFFF121B0130F3D3F1E709277F1B18
:1036F000FE406446A2B27243801A00D20139220C05
:103700007243130C1204821A99410B00704604355F
:1037100013370100F940A840801900D30131002B74
:1037200002D1A2420AD2F0BD013000D30131121BF6
:10373000FAD2013BF8D1A24200D2F0BD013000D351
:103740000131121BF7E7F0B51C0C00D080E00CB47F
:1037500000251C0A04D11B02160E33431202083541
:103760001C0B04D11B01160F3343120104359C0BB3
:1037700004D19B00960F334392000235DC0B02D13B
:1037800092185B4101351C00971864410134464F83
:103790007C66464C3C660E0CFFE7FFE7FFE7C04641
:1037A0003C6F6643360C7703BE4697B27743C01B27
:1037B00000D20139C01B00D201399FB27743C91B27
:1037C000C91B170C77437E04FF0B801BB941CE0841
:1037D0006643360C0C2D33DBB644120B1F053A43FF
:1037E0001B0B97B27743C01B00D201399FB27743BE
:1037F000C91B170C77433E043F0C801BB941860D53
:103800008F023E43664329277F1BFE400C3D7746CF
:10381000AF40BF1930BCA2B2ABB272437343801A3F
:103820009941220C7243130C1204801A9941020030
:103830000B000137001BA941F9D2781E0021F0BD11
:103840000C277F1BFE4077467F0BAF40FF19E0E758
:1038500000245D1C07D0144F7D663966FFE7FFE743
:10386000FFE7FFE73C6F95B29EB265436643401B9E
:10387000B141150C1E0C6543664336042F0C3E43C4
:103880002D04401BB141994204D202000B002000DC
:103890000021F0BD01D19042F7D3801A9941013443
:1038A0009942F2D3F6E70000000000D0FFFFFFFFCF
:1038B00048404140484018B4114B5B68FC460193B6
:1038C00008BD04DFE73B001018B40D4B1B68FC4635
:1038D000019308BD00DFF13B001018B4084BDB6812
:1038E000FC46019308BD0CDFA93E001018B4044B40
:1038F0009B68FC46019308BD08DF4D3D00100000A9
:1039000064D40020FFB550404240504059404B40E5
:10391000594000E0FFB5154F4C00640D03D0BC4288
:1039200004D10C0314D80020090D09055C00640DB6
:1039300003D0BC4204D11C030AD800221B0D1B0576
:1039400001264B4009D44B4003D58B4200D1824223
:10395000FFBD9942FCD19042FFBD0B43DB180343EE
:103960001343F5D0C9434918FFBD0000FF0700000D
:1039700000B5FFF7CFFF01D0002000BD012000BD42
:1039800000B5FFF7C7FF804100BDC04600B5FFF797
:10399000C1FF01D9002000BD012000BD00B5FFF727
:1039A000B1FF01D9002000BD012000BD00B5FFF727
:1039B000A9FF804100BD012040054A00121804D82B
:1039C0005A00121801D800207047012070470020CB
:1039D000704700000021002805D17047C1174840FA
:1039E000401AFAD0C90713B5064B1B6898470CBCA0
:1039F000441CA2401005120B0349091B0905194379
:103A0000114310BD64D500201F04000010B54C0008
:103A1000620D8023D218DB00D21A5B057E2A10DDEE
:103A20009E3A13DACC170903490819435242D14090
:103A3000640001341532202A05DAD040084360437F
:103A400010BD002010BD0846604310BDC80FC0184F
:103A5000013810BD18B4044B5B6AFC46019308BDE5
:103A600024DFD5400010000064D4002018B4044BBB
:103A7000DB6DFC46019308BD5CDFDD4100100000FA
:103A800064D40020C94211D300B54900490800227E
:103A900000F018F8002904D4002240428A4111465F
:103AA00000BD80210906002000BD000018B4044BB1
:103AB000DB6EFC46019308BD6CDFE34000100000A4
:103AC00064D4002018B4044B9B6FFC46019308BDDE
:103AD00078DFFF400010000064D4002018B4044BCD
:103AE000DB6FFC46019308BD7CDF694100100000DC
:103AF00064D4002070B513231C78012C0FD0012C46
:103B00000FDC022C02DC1D4A1D4B9A6470BD99002B
:103B10001A481B4A885001331F2BF8D9EFE70023BE
:103B2000FAE71848FFF732FC05001748FFF72EFCAC
:103B3000023803789B007F2B19DD80222900104872
:103B400000F0B6FC022CDCD1104B1A88B5231B0206
:103B50009A4209D10E4B1A880E4B9A4204D10E4B51
:103B60001A880E4B9A42CCD00020FDF77FFF0C4BF9
:103B70000C4A30210C48FDF75BFFC046AD3B0010FE
:103B800064D4002053440000534600005438000021
:103B9000D8380000494600009C3800005946000013
:103BA00030590410E45904109059041007B56046C8
:103BB000002800D100BE01880A0A0230DF2AFAD1AB
:103BC000C9B2820804D3028840880004104300E090
:103BD0000068024A5050039007BD000064D40020E2
:103BE0000FB403BC0CBCF0B50124E407634000E053
:103BF000F0B50C0DCF0F661E3605891B640503D387
:103C0000C943404200D30131640D03D0661CF60A5B
:103C100007D0E41B00207F00791C89078912803CB3
:103C200024031D0DDF0F6E1E36059B1B6D0503D390
:103C3000DB43524200D301336D0D03D06E1CF60AF4
:103C400007D0ED1B00227F007B1C9B079B12803D51
:103C50002D032F1B661B58D4A446202E46DA20378E
:103C60001400BC401D00BD40F24033412A4380187F
:103C70005941CB0F05D0C943C04300226442504193
:103C8000514162464D0D28D10D0D07D100281FD09E
:103C9000241940414941013A0D0DF9D0640006D381
:103CA000013000D30131002C01D140084000013A1D
:103CB0000BD4941CE40A04D112051144DB07194407
:103CC000F0BDD907204B194300E0D9070020F0BD13
:103CD0000029DDD1002CDBD1F0BD0132C607400840
:103CE000CD0728434908002EE1D0D9E73C2E29DA38
:103CF000203E40371400BC4000D00124F240144361
:103D00001A00BB401C43D317ACE7AC46202F08DA9F
:103D100020360400B4400D00B540F8403941284336
:103D2000A5E73C2F0CDA203F40360400B44000D019
:103D30000124F84004430800B1400C43C117EAE7EE
:103D400010001900002494E70000F07FF0B50C0D7E
:103D5000661E3605891BE60A6405640D02D0651CE3
:103D6000ED0A04D0002001210905803C2403A4466B
:103D70001C0D671E3F05DB1BE70A6405640D02D0BE
:103D8000651CED0A04D0002201231B05803C24039E
:103D90007740644497B484B296B27443070C7E4370
:103DA000150C6F4380B26843361802D3012000041B
:103DB0003F183004350C00197D41844688B29AB210
:103DC00050430C0C62431F0C7C438EB27E4392190D
:103DD00002D301263604A4191604170C36186741BD
:103DE00001BC81B29AB25143040C62431B0C5C4388
:103DF00080B25843121802D3012000042418100482
:103E0000130C401863412D185E410020474106BC49
:103E100088B293B258430C0C6343120C544389B2DA
:103E200051435B1802D301210904641819041A0CC8
:103E3000091862416D1856410020474118BCF9022B
:103E4000720D1143F0026A0D1043ED020A0D03D109
:103E50006D1940414941013B124E9B1B7600B34214
:103E60000ED26D0007D301300026714166463543FE
:103E700001D1400840001B05C918E4072144F0BDEA
:103E80000BDA013306D1013004D101314F0D01D0DD
:103E90004908F2E7E1070020F0BD013631050020B6
:103EA000EBE70000FF030000F0B51C0D671E3F05A7
:103EB000DB1BE70A6405640D02D0661CF60A04D019
:103EC000002201231B05803C2403D0252D0600265B
:103ED000F6432E661E096E66CE0FF619B4464900EB
:103EE0004F0D02D07E1CF60A03D000200021403F77
:103EF0003F033E1BB600B444013F7F05C91B490880
:103F00002E6F013676089C02950D25437543ED13FF
:103F10007543AD1301356D10F603761B0CB4CC025E
:103F2000450D2C43A2B2B3B25A43270C7B43350C48
:103F30006F43A4B26C431B1902D3012424043F191C
:103F40001C041D0CA4187D4124196D41009A91B2E6
:103F5000ACB26143170C7C432B0C5F4392B25A43C3
:103F6000A41802D301221204BF182204230C5218F1
:103F70007B41019C6C431B19520ED9010A43440139
:103F8000A01A81B2B2B2514303145A43360C7343A0
:103F900087B27743D617D21900277E4136049B1982
:103FA0001704160C7F185E417316ED18F3010026F6
:103FB00080337541A90F06D16400690AE8055B0AE0
:103FC000184309D22FE00422944480337541A90A92
:103FD000A8059B0A184326D3404149412404009A6E
:103FE000019B0D005543641B4343E41A95B286B20E
:103FF0007543170C7E43030C5F4392B25A43B618C5
:1040000002D301221204BF183204330C52197B412F
:1040100052429C41002C02D4002201305141400800
:10402000CA071043490802B06246D7079210084BEE
:10403000D218084B9A4203D212058918C919F0BD4B
:104040000020002A01DC3900F0BD01331905F5E735
:10405000FD030000FE070000624618CA94460029CE
:104060001ADAC01861415B463B415C46B440524697
:10407000FA40224344464D4662416B419046994680
:104080002B46B3403D41FC401C4352465B46A24197
:10409000AB4192469B467047C01AA1414B463B41FB
:1040A0004C46B4404246FA40224354465D46624183
:1040B0006B4192469B462B46B3403D41FC401C431E
:1040C00042464B46A241AB4190469946704700207C
:1040D00000217047002200B5203200F010F80800DF
:1040E00000BD002200B500F00CF8CA179A4200D1BA
:1040F00000BDD8430121C907414000BD00220B1576
:10410000E5D410B5944600F0A5F81414013400DA93
:104110000021CB17134C20476244343A0CD40C2AAC
:1041200007DA04009140904052422032D4402143AB
:1041300010BDD843D94310BD203207D40C4694405B
:10414000524220321141D040204310BD0800C9170F
:10415000203203D452422032104110BD1800190001
:1041600010BD0000194100104A00520D144BD21A24
:1041700013DDFF2A1EDAD205CB0FDB071A43C3007B
:10418000400F0903490A084310435B0001D301D0E3
:10419000013070474308FBD2704702D0C80FC007F8
:1041A00070470A0312130132F8D1420F072AF5D1E2
:1041B000012200E0FF22C80F00028018C0057047EE
:1041C0008003000000210A00002104E000210A0011
:1041D000C11704E00022002306E0C0460022CB17EE
:1041E00058405940C01A994130B5184CA21A0029BC
:1041F00003D1010010D00020203A4C1512D104D276
:10420000013A001849414C0DFAD3114CA24204D294
:1042100012058918DB07C91830BDD243520D0020A2
:104220000021F5E703D4013A00184941FBD50B32D0
:104230004405C00A4D052843C90A640003D0002480
:1042400060416141E1E7E0D34408F8E7320400004F
:10425000FE0700000A0DCC0F531E1B05C91A52059C
:1042600003D3C943404200D30131520D03D0531C44
:10427000DB0A07D0121B00206400611C8907891229
:10428000803A1203014BD21A70470000FF0300006E
:1042900051434343C9188C46110C83B24B4310B4AD
:1042A000040C614392B280B2504362431C041B0C65
:1042B000001910BC59411304120CC018514161443B
:1042C0007047000007B548404140484001E0C04603
:1042D00007B54200120E03D0FF2A03D1420218D8BC
:1042E000C00DC0054A00120E03D0FF2A03D14A02B6
:1042F0000FD8C90DC9050122414005D4414001D55F
:10430000814207BD884207BD0143491801D0C0431F
:10431000001807BD00B5FFF7DBFF01D0002000BD8E
:10432000012000BD00B5FFF7D3FF01D9002000BD7B
:10433000012000BD01231B064200D21804D84A0008
:10434000D21801D8002070470120704770B51323A0
:104350001D782A48FFF71AF80400012D11D0012D0D
:1043600009DDA31E1B789B007F2B40DD80222100EE
:10437000234800F09DF82348FFF700F8224B18600F
:1043800070BD542201001E4800F092F81F4B1A889D
:104390001F4B9A421CD1A7239B011A881D4B9A429E
:1043A00016D11D4B1A881D4B9A4211D11C4B1A88ED
:1043B00094239B019A420BD11A4B1A881A4B9A42AA
:1043C00006D11A4B1A681A4B9A4201D1152307E0FD
:1043D0001848FDF74BFB99001748094A88500133EC
:1043E0001F2BF8D9144A064B1A62DA61B7E7134B50
:1043F000134A42211348FDF71BFBC04653460000F9
:1044000068D500204C33000064D50020EE29000060
:10441000C40F0000C20D0000962B0000C0B50000C4
:10442000182B0000CC2A000010B50000FC2C000066
:1044300051ED87643C88041049440010F859041079
:10444000805A04102C5A041007B56046002800D189
:1044500000BE01880A0A0230DF2AFAD1C9B28208F6
:1044600004D3028840880004104300E00068024A38
:104470005050039007BD000068D5002010B533F000
:104480006FF910BD10B531F095FE10BD10B533F0C9
:1044900071F910BD01480421014B1847101200208A
:1044A0009D330010014B1B681847000010120020BC
:1044B000014B5B68184700001012002010B5FFF791
:1044C000DDFF10BD10B5FFF7D9FF10BD10B5FFF728
:1044D000DDFF10BD10B5FFF7D9FF10BD10B5FFF718
:1044E000D5FF10BDF8B507000D001600437C002B6A
:1044F00002D0002400200CE0036811002800984737
:104500002DE03B7C10E0022115483B689847601C79
:104510000134B44214DA002CF3DD2B19013B1B7873
:104520000D3B5A425341DBB22A5D0A2AF0D1002BDF
:10453000EED1A042E7DA211A28183B689847E2E753
:10454000B04203DA311A28183B689847002E06DD7E
:10455000AD19013D2B780D3B5A4253413B74F8BDD8
:10456000D85A0410F0B583B007000E0000920193F2
:1045700024E0A368002B04D03100380098470028BD
:1045800023DCE468002C06D0114B1D68002DF0D010
:10459000A542F6D1EDE70099019A0E4B5B6A9A426B
:1045A00009D80C48806A88420BD29A4201D0012374
:1045B00002E0002300E00023002B04D1064B1C681E
:1045C000E0E70123F8E70120404203B0F0BDC04618
:1045D00044340020004005403C34002070B5050004
:1045E0000368002B16D00C4B1C6805E0290004C999
:1045F0002000FFF777FFE468002C09D02368002B28
:10460000F9D0064B1B68002BF0D0A342F3D1EDE7A5
:1046100000232B6070BDC0463C3400204434002091
:1046200070B505000C000B68802B05D021684B1C71
:1046300023606418257170BD0800FFF7CFFFF5E710
:1046400010B582B0D0231B061C6801A9064840F0B3
:1046500057FB002806D1019BA34203D0024840F03B
:1046600087FB012002B010BDE01C002010B50248FD
:1046700040F006FB10BDC046E01C0020F0B5C64669
:1046800000B582B006000D001700FFF7D9FF804685
:104690006B1C02D0184B1C6805E0300034F0CCFFD6
:1046A0000500F7E7E468002C18D02368002BF9D048
:1046B000124B1B68002B01D0A342F3D12A0031001A
:1046C0002000FFF70FFF002FECD06B46D91D0A2307
:1046D0000B7001222000FFF705FFE3E74346002BA4
:1046E00006D16B1E9D41E8B202B080BCB846F0BD59
:1046F000FFF7BCFFF5E7C0463C34002044340020FF
:1047000010B5030008001100002B05D1044B1A68F6
:104710005B68FFF727FF10BD01204042FBE7C04662
:104720001850041010B50B001400012806D1002207
:1047300021001800FFF7A2FF200010BD0120404219
:10474000FBE700000C4B1A68130001E01A00DB685D
:10475000002B08D08342F9D1002903D1DB68D36054
:104760000023C36070470029FCD0002A01D0D0602C
:10477000F8E7014B1860F5E73C34002010B5064B14
:104780001C6801E09847E468002C03D06368002BA4
:10479000F8D1F8E710BDC0463C34002070B50500E4
:1047A00034F04AFF0400012201002800FFF766FFF1
:1047B000FFF7E4FF200070BD70B5A2B004000E004A
:1047C000FFF73EFF05008422002101A8FFF76AFEE3
:1047D0003300220001A90848FEF7B8FD040001A833
:1047E000FFF7FCFEFFF7CAFF002D02D1200022B028
:1047F00070BDFFF73BFFF9E7214600100FB400B58D
:1048000083B004A901C90191FFF7D6FF03B008BC2A
:1048100004B0184710B500F081F810BDF0B583B0B2
:1048200005000E00002411E06B46DA1D0D23137005
:104830000021002912D1124B9B699B06FBD41078F2
:104840000F4B186001310132F3E70134A64215D94C
:104850002F5D0C4B00229B5EBB42E5D06B46DA1D00
:10486000177000210029F0D1054B9B699B06FBD4F2
:104870001078034B186001310132F3E703B0F0BD4B
:104880000040034078D6002070B582B004000D00CF
:10489000002004E06B4607331B7803703000A84209
:1048A00016DA0E4B9B6910210A001A4019420FD1EB
:1048B000461C20186B46D91D002AEBD1074B9B697B
:1048C000DB06FBD4054B1B680B7001320131F3E7AB
:1048D000002801D002B070BD0338FBE70040034060
:1048E00070B515001C000B4B1860FCF717F86B1C1B
:1048F00006D1631C09D101210748FFF723FF70BDD2
:1049000002212800FBF748FFF3E702212000FBF714
:1049100043FFF0E77CD600202012002010B5064BA4
:104920001B78064B1B78E121012300224902044831
:10493000FFF7D6FF10BDC046001C0510041C051073
:1049400000400340F0B5D646474680B583B0824666
:1049500088460620FDF7A8F90700022400E02C0095
:10496000FE2C1CD801970026A51C280242460023D5
:104970000021FFF78DFC002903D1B142EFD1B842ED
:10498000EDD980256D00012D0CD96E1E21007143DB
:104990003800FEF74BFD404504D83500F3E780258D
:1049A0006D00F0E753461C616B1E1B0252461268F5
:1049B0005340FF2212021340802040015246104310
:1049C0000360290061433800FEF730FD03B0C0BC2E
:1049D000BA46B046F0BD000070B50400154B9842D1
:1049E00025D080229202144B1A60144B1A60144B8B
:1049F0009B6810009843FAD12000FFF7A3FF2368BB
:104A000007267340CF210B408022520122431360BE
:104A10002500243580208001054303232B6008CC2A
:104A200073401940116004430223236070BD80224B
:104A30005202D8E700C0034000E0004000F0004010
:104A400000C00040F0B5DE4657464E4645460122BE
:104A5000E0B5DF4F00243800DE4B83B01A70DE4B28
:104A60007C6098461B681C309D68DC4BBC603B60DA
:104A7000FC603C617C61BC619B4601F0E7F8D84B6F
:104A8000D84E9A463B6001235B4299467B6243467F
:104A90001B683D625D6830005B4674603360B460E3
:104AA000F46034617461B4611C3001F0CFF8534696
:104AB00033604B46736243463562CB4D5A462800FD
:104AC0001B682A60DB686C60AC60EC602C616C6118
:104AD000AC611C30019301F0B9F8019B52462B6286
:104AE0004B466B62C14B2A609946180012F06AFE71
:104AF0004B4678221C67043B9C5208329C5004327F
:104B00009C5004329C50DC67B94C390022001432AE
:104B100048461C605A6012F0DBFDB64F380012F0B8
:104B200051FE3B0000227C21083B5A5204315A506E
:104B300004315A5004315A5004315A50AE493800A9
:104B40001960143199603A6731005A6012F0C0FD63
:104B5000AA4E300012F036FE00227821331F5A523E
:104B600008315A5004315A5004315A503267B267F2
:104B700022001432290030001C60326012F0A8FDBF
:104B80009F4E300012F01EFE00227821331F5A5231
:104B900008315A5004315A501C60043114345A50B0
:104BA000300029003267B267346012F091FD802234
:104BB0009449954B92019967944B954F18695967A1
:104BC00002431A614346002438001B687C609D68DC
:104BD000904BBC603B60FC603C617C61BC611C3004
:104BE0009B4601F033F88C4B8C4E9A463B60012378
:104BF0005B4299467B6243461B683D625D683000BC
:104C00005B4674603360B460F46034617461B461B5
:104C10001C3001F01BF8534633604B467362434629
:104C20001B683562DB687E4D984628005B466C60E9
:104C30002B60AC60EC602C616C61AC611C3001F0ED
:104C400005F853462B6043462B624B466B62754B0F
:104C50009846180012F0B6FD43467C221C675C673C
:104C6000043B9C5404329C5004329C5004329C50AF
:104C700004329C506C4C39002200143240461C60B7
:104C80005A6012F089FD694F380012F09BFD3B001D
:104C900000228021083B5A5404315A5004315A50A2
:104CA00004315A5004315A506149380019601431A6
:104CB00099603A6731007A675A6012F06DFD5D4E77
:104CC000300012F07FFD00227C21331F5A54043142
:104CD0005A5004315A5004315A5004315A503267F4
:104CE000726722001432290030001C60326012F01A
:104CF00053FD514E300012F065FD00227C21331F20
:104D00005A5404315A5004315A5004315A501C60DC
:104D1000043114345A50300029003267726734600D
:104D200012F03AFD80224549454B92019967454B67
:104D30001869596702431A61434A136801331360C3
:104D400003B0F0BCBB46B246A946A046F0BD2D4B11
:104D50003E4A48465A6012F073FD27F0A5FE3C4BD0
:104D60003C4A30005A6012F06BFD27F09DFE354B37
:104D7000384A30005A6012F063FD27F095FE304B40
:104D8000344A38009A6012F05BFD27F08DFE2B4B01
:104D9000304A40465A6012F053FD27F085FE2E4BF4
:104DA0002A4A30005A6012F04BFD27F07DFE174B67
:104DB000264A30005A6012F043FD27F075FE124B70
:104DC000224A38009A6012F03BFD27F06DFEC04683
:104DD000D42C002034120020C81200205488041063
:104DE000DC7D0410842C0020AC2C0020C43000207A
:104DF0002C870410202F0020A87F0410AC2F002047
:104E000038300020C0300020182F0020A82F0020AC
:104E10004C2D0020948804101C7E0410FC2C0020D3
:104E2000242D0020043300205C870410543100201E
:104E3000D87F0410E43100207432002000330020B9
:104E40004C310020E0310020E42E0020F87E0410D8
:104E500070320020087F041034300020064A10B55C
:104E600013680400591C1160002B01D0200010BDF4
:104E7000FFF7E8FDFAE7C046E42E0020104A10B51F
:104E800013680400591E1160022B01D0200010BDD0
:104E90000C481CF077FD0C481CF074FD0B481CF00E
:104EA00071FD0B481CF0AAFD0A481CF0A7FD0A483A
:104EB0001CF0A4FDEAE727F093FF27F0CBFFE5E71E
:104EC000E42E0020C0300020A82F00203430002025
:104ED00000330020E0310020703200207047C046CF
:104EE00010B50400FFF7F6FA200010BD044A0B6865
:104EF00012680360934202D01A6801321A60704748
:104F0000642E00200160704710B5064C2068002810
:104F100000D010BD20000022034929F0CFF92068FD
:104F2000F7E7C0466C2E00201C5B04100048704759
:104F30001C5B0410416870B50500002916D0836819
:104F4000002B10D00024354EA2005058002805D068
:104F500043685A1E4260012B36D0AB680134A3422D
:104F6000F2D8002902D00800FFF7B8FAE968002952
:104F700016D0AB68002B10D00024284EA200505849
:104F8000002805D043685A1E4260012B24D0AB682C
:104F90000134A342F2D8002902D00800FFF79EFA9C
:104FA0002B690024002B0DD01859002802D0FFF7E0
:104FB00095FA2B690434182CF6D1002B02D0180076
:104FC000FFF78CFA280070BD03685B68B3420BD111
:104FD000FFF780FA6968C0E703685B68B34206D1EF
:104FE000FFF778FAE968D2E798476968B5E7984724
:104FF000E968CCE727F0F4FE27F02CFF6968ACE7FE
:1050000027F0EEFE27F026FFE968C0E74B1C02D12F
:1050100027F066FEFAE727F047FDC046E14E001094
:105020000A4B70B51B68056804009D4204D02B68CC
:105030005A1E2A60012B01D0200070BD2800FFF706
:1050400079FF2800FFF746FAF6E7C046642E0020F5
:105050000E4A0B68126870B504000D00934202D02E
:105060001968013119602668B24204D03268511EB5
:105070003160012A02D02000236070BD3000FFF7AC
:1050800059FF3000FFF726FA2B68F4E7642E002062
:10509000F0B54E46DE4657464546E0B583B0161E8F
:1050A000009000D1E6E00C68002C04D1A84B1A68EF
:1050B000541C1C600C60009A671E9368013BBB4245
:1050C0005FD2E31C9A4653689B46A24B9A4500D890
:1050D000DCE001235B4299464846FFF7F3F9009B69
:1050E00080469B689C46002B0AD0009B596863460B
:1050F0009A0000234546C858E85004339342F9D13A
:10510000E24509D9534662469A1A6346980000213F
:1051100092004044FFF7C6F9009D4846EB680193B2
:10512000FFF7D0F9AB6881469C46002B0AD0009B64
:10513000D96863469A0000234D46C858E8500433A6
:105140009342F9D1D44509D2534662469A1A63462E
:105150009800002192004844FFF7A4F95346009AB2
:105160009360434653604B46D3605B46002B02D0AE
:105170005846FFF7B3F9019B002B02D01800FFF748
:10518000ADF97368BF0001337360009B5B689C4698
:1051900067443B68B9469846002B45D06E4A116873
:1051A00000293AD06A480EE057683B68002B03D1CB
:1051B0000368013303603B609C4200D173E0916857
:1051C0000832002929D00B68002B03D10368013372
:1051D00003600B609C42E7D151680B68002B04D13F
:1051E0005B4A1368013313600B60013B9C0064440D
:1051F0002368002B11D030000DF098FA43688046E8
:1052000001334360206843685A1E4260012B6FD00F
:10521000434623604B461B689846434641465B68BD
:105220005A1E4A60012B35D04B461E60009B9A687F
:10523000002A1FD0D968494B00240027984605E072
:105240001F60009B9A680134A24213D9A6008B19F3
:1052500018680028F7D04268551E4560012AEFD132
:1052600003685B6843450CD1FFF734F9009BD968AC
:105270008B19E5E703B0F0BCBB46B246A946A04691
:10528000F0BD9847009BD9688B19D9E753469B001E
:10529000994621E70B68314A5B684046934225D125
:1052A000FFF718F9C0E70B68002B04D1284A1368F0
:1052B000013313600B60013B9C0064442368002BA6
:1052C000ABD0300004F0C8FC436880460133436033
:1052D000206843685A1E4260012B99D103681F4A17
:1052E0005B6893420BD1FFF7F5F891E798479BE78E
:1052F00003681A4A5B689342F5D0984788E7984755
:1053000086E727F06DFD4046FFF7E8F828F0F2F950
:1053100027F066FD27F09EFD86E727F061FD27F068
:1053200099FDAFE727F05CFD27F094FD70E727F0CB
:1053300057FD27F08FFD6BE727F08CFD27F0B4FBBE
:105340004B1CFBD127F0CCFCFAE7F9E7F8E7C046A5
:10535000682E0020FEFFFF1F3C5B0410E14E001092
:10536000F8B53A4F06003B780D001400BFF35B8F91
:10537000DB073FD5364A1168002930D0354F0EE0A3
:1053800050680368002B03D13B6801333B60036026
:10539000013B9C4237D09168083200291FD00B682E
:1053A000002B03D13B6801333B600B60013B9C4207
:1053B000E6D152681368002B40D0F268A40014199B
:1053C0002168013B00292ED0002D07D02B68224AEE
:1053D0005B682800934237D1FFF77CF8F8BDF2688C
:1053E000A40014192368002BEED16B6801336B60A5
:1053F0002560F3E7380028F0B5F90028BAD0380066
:1054000028F0CCF9B6E70A68002A04D1114B1A68D3
:1054100001321A600A602300541EF268A4001419B5
:1054200021680029D0D16968481C68602560581C33
:10543000D4D002319B0069609D50CFE705490B68CD
:1054400001330B601360B8E79847C7E7E01D002001
:105450003C5B0410682E0020E14E00100300006841
:10546000002804D1034A1168481C106018600138F4
:105470007047C046682E0020F0B5DE464E464546D1
:1054800057463023E0B50600FD4C836089B00160CB
:10549000C02200212000FFF705F87460F94CC022FB
:1054A00000212000FEF7FEFFF460F74C14220021DB
:1054B000201DFEF7F7FFF54D34612560FFF736FD3F
:1054C000022201002800FEF7F3FFF14C0123002225
:1054D0000021200005F092FE22003000ED49FFF788
:1054E000D7FDED4C0121200028F098FF220030006C
:1054F000EA49FFF7CDFD0122E94BE9495A60E94B42
:10550000E7480B6000238B60CB600B744B618B61B1
:10551000CB610B628B8400216433E34CC154E34BB9
:10552000A060002120006260236001F0B3F8220037
:105530003000DF49FFF7ACFD0123DE4A3000536045
:10554000DD4BDE491360FFF7A3FD0123DC4A300089
:105550005360DC4BDC491360FFF79AFD0123DB4C01
:105560006360DB4B2360FFF7CFFCA06022003000BC
:10557000D849FFF78DFDD84B01229A4651465A6013
:10558000D64B50460B6000238B60CB60002103821A
:1055900043618361C361036243628362C3620363E5
:1055A00043634333CE4CC154CE4B81746260A060E0
:1055B000002200212000236000F0D4FB22003000F4
:1055C000C949FFF765FDC94B0122994649465A6012
:1055D000C74B48460B6000238B60CB6000210382E1
:1055E00043618361C361036243628362C362036395
:1055F00043634333BF4CC154BF4B81746260A060AE
:10560000002200212000236000F05CFB220030001B
:10561000BA49FFF73DFD0123B94A30005360B94B49
:10562000B9491360FFF734FD0123B84A30005360D5
:10563000B74BB8491360FFF72BFD0123B64D80220D
:105640006B60B64B29002B600023AB60EB602B61D5
:105650006B61AB61EB612B626B62AB62EB622B63E4
:105660006B63AB63EB632B646B64AB64EB642B65C4
:105670006B65AB65EB652B666B66AB66EB662B67A4
:105680006B67AB67AB500432AB500432AB500432A3
:10569000AB500432AB500432AB500432AB50043246
:1056A000AB500432AB500432AB500432AB50043236
:1056B000AB500432AB500432AB500432AB50043226
:1056C000AB50974C0432AB500432AB542000EB6724
:1056D000C33A12F02DFE220030009249FFF7D8FCA9
:1056E0000123914A30005360904B91491360FFF7BA
:1056F000CFFC01238F4A300053608F4B8F491360DA
:10570000FFF7C6FC8E4C012120000AF09FFD22000D
:1057100030008C49FFF7BCFC8B4C0121200005F0C8
:105720003FFD220030008949FFF7B2FC884C01217F
:10573000200028F08BFE220030008649FFF7A8FCED
:10574000854B01229B4659465A60844B58460B6054
:1057500000238B60CB600B744B618B61CB610B6260
:105760004B628B62922149007D4C43547D4BA0607B
:10577000002120006260236001F012F82200300056
:105780007949FFF785FC0123784A30005360784B54
:1057900078491360FFF77CFC0123774A300053609F
:1057A000764B77491360FFF773FC0123754C6360F8
:1057B000754B2360FFF7A8FBA060220030007349FF
:1057C000FFF766FC724B0122984641465A60714BC6
:1057D00040460B6000238B60CB600B744B618B6188
:1057E000CB610B624B628B62CB620B634B638B634F
:1057F000CB636C21684C4354684B6260A06000220C
:1058000000212000236000F0B5FB22003000644935
:10581000FFF73EFC634F644B6C213B600023012289
:10582000624C7B54BB60FB603B747B61BB61FB6182
:105830003B627B62BB62FB623B637B63BB63FB637C
:105840005B4B7A6062600021002220002360A76029
:1058500000F040FB220030005649FFF719FC0123FD
:10586000554A30005360554B55491360FFF710FC03
:105870000123544A30005360534B54491360A7E04E
:10588000A42B0020B42A00209C2A00208C23002076
:10589000982300205C2E0020742B0020C42E0020B2
:1058A000041F0020405C0410101E0020DC6D04105A
:1058B000942E0020642C0020CC810410D42E0020D3
:1058C000742C002008820410DC2E00208C2B002079
:1058D000C06D0410842E002024220020DC5B041004
:1058E000B41E0020346E0410742E002068220020A4
:1058F000CC5B0410C01E0020006E0410782E002027
:10590000581E0020846E0410A42E0020681E002063
:105910009C6E0410AC2E00209420002038820410CD
:10592000781E0020A42D0020281E0020B46E041034
:105930009C2E0020381E002038830410002F0020E9
:10594000F01D00208C2E0020B8250020602E0020A5
:10595000802B0020C82E00206C1F0020505C0410FB
:105960001C1E0020C07A0410982E00206C2C0020F1
:10597000248B0410D82E00207C2C0020608B041077
:10598000E02E0020982B0020A47A0410882E0020FE
:10599000AC220020FC5B0410CC1E0020187B0410FD
:1059A0007C2E00201C230020EC5B0410D81E00205D
:1059B000E47A0410802E0020601E0020687B041012
:1059C000A82E0020701E0020807B0410B02E002026
:1059D000FFF75EFB01237D4C802263607C4B21003E
:1059E00023600023A360E36023616361A361E3613B
:1059F00023626362A362E36223636363A363E3637B
:105A000023646364A364E36423656365A365E3655A
:105A100023666366A366E36623676367A367A35091
:105A20000432A3500432A3500432A3500432A350D2
:105A30000432A3500432A3500432A3500432A350C2
:105A40000432A3500432A3500432A3500432A350B2
:105A50000432A3500432A3500432A3500432A350A2
:105A60000432A3545B48E367C33A1DF0C7FA300021
:105A7000584A5949FFF70CFB0123584A300053603C
:105A8000574B58491360FFF703FB0123564A300078
:105A90005360564B56491360FFF7FAFA01215548F7
:105AA00011F006FB3000534A5349FFF7F1FA012386
:105AB000524A30005360524B52491360FFF7E8FAE4
:105AC0000123514A30005360504B51491360FFF796
:105AD000DFFA01234F4A300053604F4B4F491360A8
